:100000000C94E0000C9408010C9408010C94080175
:100010000C9408010C9408010C9408010C9408013C
:100020000C9408010C9408010C9408010C9408012C
:100030000C9408010C9408010C9408010C9408011C
:100040000C94C6170C9408010C948E120C94681230
:100050000C9408010C9408010C9408010C940801FC
:100060000C94FC070C94080100407A10F35A00A08D
:10007000724E18090010A5D4E80000E87648170071
:1000800000E40B54020000CA9A3B000000E1F505B1
:10009000000080969800000040420F000000A086FB
:1000A00001000000102700000000E803000000002D
:1000B0006400000000000A000000000001000000D1
:1000C00000002C76D888DC674F0823DFC1DFAE59EB
:1000D000E1B1B796E5E3E453C63AE651997696E87E
:1000E000E6C28426EB898C9B62ED407C6FFCEFBC02
:1000F0009C9F40F2BAA56FA5F490055A2AF75C932D
:100100006B6CF9676DC11BFCE0E40D47FEF520E662
:10011000B500D0ED902E0300943577050080841E45
:10012000080000204E0A000000C80C333333330FA0
:10013000986E12831141EF8D2114893BE65516CF3D
:10014000FEE6DB18D1844B381BF77C1D901DA4BB49
:10015000E424203284725E228100C9F124ECA1E5FE
:100160003D27000000080002010000030407000012
:10017000000000000000040404040404040402025B
:100180000202020203030303030301020408102016
:100190004080010204081020010204081020000021
:1001A0000000230026002900000000002500280090
:1001B0002B0000000000240027002A00AC26CC22DF
:1001C00011241FBECFEFD8E0DEBFCDBF13E0A0E00B
:1001D000B1E0E0EBFEE502C005900D92A439B10755
:1001E000D9F726E0A4E9B3E001C01D92AD30B20713
:1001F000E1F710E0CFEDD0E004C02197FE010E94AE
:10020000422DCE3DD107C9F70E94F1220C944B2F0D
:100210000C9400000895CF93DF931F92CDB7DEB703
:100220006983DC01ED91FC910280F381E02D41E0D6
:1002300050E0BE016F5F7F4F09950F90DF91CF9126
:100240000895FC01818D928D0895FC019485FB0138
:100250008485981303C081E0943008F080E008950D
:10026000CF93DF931F92CDB7DEB76983DC01ED91A9
:10027000FC910280F381E02D41E050E0BE016F5F10
:100280007F4F09950F90DF91CF910895FC018485F0
:1002900095850895FC0184899589089527EC31E0BE
:1002A000FC0131832083FB01408951896289738974
:1002B000FC0142835383648375830895DC01ED91CF
:1002C000FC91048CF58DE02D099480E0089585ED76
:1002D0008093BC008091BC0084FDFCCF109243044D
:1002E00008954091F603262F30E0240F311D21326E
:1002F0003105DCF4209143042430C9F4FC0180E092
:1003000090E0861758F43091F6032191DC01AA524F
:10031000BC4FA30FB11D2C930196F3CF8091F60330
:10032000680F6093F60380E0089581E0089582E00D
:10033000089508950895E091470480914604E817D0
:1003400030F4F0E0EA54FC4F808190E008958FEFA4
:100350009FEF08959091470480914604981750F4B8
:10036000E92FF0E0EA54FC4F208130E09F5F90934A
:10037000470402C02FEF3FEFC90108958091460462
:1003800090E020914704821B91090895CF92DF925B
:10039000EF92FF920F931F93CF93DF937C01CB01DA
:1003A0008A012091B503222389F0EB016B01C40E71
:1003B000D51ECC15DD0569F06991D701ED91FC9151
:1003C0000190F081E02DC7010995F3CF642F0E94C1
:1003D0007101C801DF91CF911F910F91FF90EF90B4
:1003E000DF90CF900895CF93DF931F92CDB7DEB704
:1003F00069832091B5032223D1F020914404203257
:1004000040F021E030E0FC013383228380E090E083
:1004100015C080914504E82FF0E0EB56FC4F998120
:1004200090838F5F809345048093440405C061E00E
:10043000CE0101960E94710181E090E00F90DF9162
:10044000CF910895FC01768765870895DC01ED91D1
:10045000FC91068CF78DE02D099591E08927089590
:10046000862F089581E08627089521E0FC01848588
:10047000843008F020E0822F0895089580E090E015
:100480000895CF92DF92EF92FF920F931F93CF9335
:10049000DF9300D000D000D0CDB7DEB78C016B0168
:1004A0007A01FC01808D843010F40E94A31687EC41
:1004B00091E09A838983F60182819381A481B58139
:1004C0008B839C83AD83BE83B701CE0101960E94CE
:1004D0006A19F801808F843030F4F586E486128E34
:1004E000118E81E001C080E026960FB6F894DEBF41
:1004F0000FBECDBFDF91CF911F910F91FF90EF9075
:10050000DF90CF900895CF93DF93FC01808D8430EE
:1005100028F4EF010E94A31684E0888FDF91CF9129
:100520000895FC01808D843040F4218D328D232B81
:1005300021F00E944D1590E008958FEF9FEF0895F0
:10054000CF93DF93FC012485243018F08FEF9FEFC9
:100550000EC0EC010190F081E02D0084F185E02DCA
:100560000995892B99F38C850E944D1590E0DF91B8
:10057000CF910895CF93DF93FC01218D328D21150A
:10058000310519F48FEF9FEF11C0EC0142175307AB
:1005900008F0A901888D0E94B0151816190694F765
:1005A000298D3A8D281B390B3A8F298FDF91CF91F6
:1005B00008950F931F93CF93DF931F92CDB7DEB7AC
:1005C000FC01218D328D232B61F08C0141E050E044
:1005D000BE016F5F7F4F808D0E94B01518161906FF
:1005E0001CF08FEF9FEF08C0F801818D928D01976D
:1005F000928F818F898190E00F90DF91CF911F9131
:100600000F910895CF93DF931F92CDB7DEB741E0EE
:1006100050E0BE016F5F7F4FFC0184850E94B015E2
:10062000181619061CF4898190E002C08FEF9FEF25
:100630000F90DF91CF910895FC018485843010F4F0
:100640000C94B01580E090E00895FC01848584301E
:1006500010F40C947A1580E090E008950F931F93A6
:10066000CF93DF93CDB7DEB728970FB6F894DEBFF0
:100670000FBECDBF8C01D80159964D915C915A9710
:100680004115510551F0ED91FC91048CF58DE02D53
:1006900060E070E0C8010995EECFF801808D0E94FE
:1006A0007A15892B51F148E050E0BE016F5F7F4F12
:1006B000D80158968C910E94B01518161906FCF4B2
:1006C000D801509684E0FE01319601900D928A95F2
:1006D000E1F78D8190E0982F88272E81820F911D60
:1006E000F801958B848B8F8190E0982F882728853F
:1006F000820F911D928F818F02C080E090E028963A
:100700000FB6F894DEBF0FBECDBFDF91CF911F9122
:100710000F910895AF92BF92CF92DF92EF92FF9226
:100720000F931F93CF93DF93CDB7DEB7AF970FB67D
:10073000F894DEBF0FBECDBF8C015B016A01CE0114
:1007400001960E944A1987ECE82E81E0F82EFBA65C
:10075000EAA61CA61DA61EA61FA6809121059091A3
:100760002205A0912305B09124058EA39FA3A8A7DD
:10077000B9A78B839C83AD83BE8318861F82AE018D
:10078000465D5F4FB501CE0101960E946E1C81301F
:100790009105B1F4D801ED91FC910488F589E02D23
:1007A000FDA2ECA28CA59DA5AEA5BFA58EA39FA37F
:1007B000A8A7B9A7A601BE016C5D7F4FC801099526
:1007C000AF960FB6F894DEBF0FBECDBFDF91CF91CD
:1007D0001F910F91FF90EF90DF90CF90BF90AF905F
:1007E00008950F931F93CF93DF93EC018B01888DB6
:1007F000843010F40E94A31680910506882329F006
:10080000B80182E00E94071701C084E0888F84301D
:1008100030F41D870C871A8E198E81E001C080E0AC
:10082000DF91CF911F910F910895CF93DF93EC014A
:100830008C858430C8F40E94BF16843181F08823EF
:1008400071F0883161F08C3161F4E881F9810084C4
:10085000F185E02DCE01099521E0892B19F420E0E6
:1008600001C021E0822F01C080E0DF91CF91089587
:10087000CF92DF92EF92FF92CF93DF93EC018C85C2
:10088000843038F50E9487160E946B1B6B017C0137
:100890008C850E94BF168823D1F061E070E080E073
:1008A00090E00E94311B0E946B1BAB01BC014C19F4
:1008B0005D096E097F098D859E85A0E0B0E048172F
:1008C00059076A077B0720F38C850E94A31684E0F2
:1008D0008C87DF91CF91FF90EF90DF90CF900895BC
:1008E000CF92DF92EF92FF920F931F93CF93DF93FC
:1008F000CDB7DEB7AF970FB6F894DEBF0FBECDBF52
:100900008C016B017A01CE0101960E944A1987EC95
:1009100091E09BA78AA71CA61DA61EA61FA6D8010C
:100920001C968C91843060F40E94BF16882321F0BD
:10093000F80184850E94871684E0D8011C968C9368
:100940008091210590912205A0912305B091240565
:100950008EA39FA3A8A7B9A78B839C83AD83BE83D7
:1009600018861F82AE01465D5F4FB601CE0101962B
:100970000E946E1C0097C1F0D801ED91FC91068495
:10098000F785E02D87EC91E09DA38CA38CA59DA518
:10099000AEA5BFA58EA39FA3A8A7B9A7A701BE0117
:1009A0006C5D7F4FC8010995AF960FB6F894DEBF16
:1009B0000FBECDBFDF91CF911F910F91FF90EF90B0
:1009C000DF90CF900895CF93DF93EC018C85843036
:1009D00060F40E94BF16873111F08C3131F48C85A0
:1009E0000E941E158115984088F3DF91CF910895DC
:1009F000FC018485843010F40C941E1580E090E096
:100A00000895DA0190910606E92FF0E0FE2FEE2717
:100A1000E60FF71F90E0982F8827A901BD018E0FE0
:100A20009F1F0C946713CF93DF931F92CDB7DEB750
:100A300090910606292F30E0322F2227260F371FEC
:100A400090E0982F8827498341E050E0BE016F5F16
:100A50007F4F820F931F0E9467130F90DF91CF91FA
:100A60000895CF93DF931F92CDB7DEB7909106061E
:100A7000292F30E0322F2227260F371F90E0982FA2
:100A8000882741E050E0BE016F5F7F4F820F931FC8
:100A90000E94DA1289810F90DF91CF910895DA01D7
:100AA00090910606E92FF0E0FE2FEE27E60FF71FE4
:100AB00090E0982F8827A901BD018E0F9F1F0C94ED
:100AC000DA1208958CBD9DBD08957F928F929F92FA
:100AD000AF92BF92CF92DF92EF92FF920F931F934C
:100AE000CF93DF9300D0CDB7DEB77C014B01742EDE
:100AF000C52EFC01A688B788D08CCE0101960E9435
:100B0000302089819A810E9462058D2D0E94E21415
:100B1000072D1C2D8017910708F48C019801A40162
:100B2000B5018D2D0E946314F70186899789800F86
:100B3000911F978B868BC8010F900F90DF91CF91FB
:100B40001F910F91FF90EF90DF90CF90BF90AF90EB
:100B50009F908F907F9008951F93CF93DF9300D045
:100B6000CDB7DEB7FC01108DCE0101960E9430207A
:100B700089819A810E94620560E270E0812F0E9463
:100B8000C01262E070E0812F0E94310584FD18C020
:100B900062E070E0812F0E94310583FF08C048E1C8
:100BA00062E070E0812F0E94130580E010C0CE014A
:100BB00001960E94302089819A810E946205E1CFCE
:100BC00040E162E070E0812F0E94130581E090E037
:100BD0000F900F90DF91CF911F910895DF92EF92C8
:100BE000FF920F931F93CF93DF9300D0CDB7DEB763
:100BF000FB01DC0157961C921E925697228121110F
:100C000009C02381211106C02481211103C025813F
:100C10002223F9F041155105E1F07A018F01FC0121
:100C2000D08CCE0101960E94302089819A810E9449
:100C30006205A8014E5F5F4F24E030E06CE070E099
:100C40008D2D0E940105B7018D2D0E94DD1681E0DA
:100C500001C080E090E00F900F90DF91CF911F9145
:100C60000F91FF90EF90DF9008950F931F93CF9314
:100C7000DF9300D0CDB7DEB7FC0124852430D0F45B
:100C80008C01CE0101960E94302089819A810E94B8
:100C9000620522E030E0AE014F5F5F4F60E170E03F
:100CA000F80184850E944F0589819A8198278927B8
:100CB000982702C080E090E00F900F90DF91CF91D5
:100CC0001F910F910895EF92FF920F931F93CF936F
:100CD000DF9300D000D0CDB7DEB78C017B01FB01E4
:100CE0008485843050F087EC91E0F8019183808313
:100CF000128213821482158220C0CE0101960E94B6
:100D0000302089819A810E94620524E030E0AE01A2
:100D10004F5F5F4F6CE070E0F70184850E944F05E4
:100D200087EC91E0F8019183808389819A81AB817E
:100D3000BC8182839383A483B583C8010F900F90F5
:100D40000F900F90DF91CF911F910F91FF90EF9037
:100D500008950F931F93CF93DF9300D0CDB7DEB7E5
:100D6000FC0124852430D0F48C01CE0101960E9430
:100D7000302089819A810E94620522E030E0AE0134
:100D80004F5F5F4F64E070E0F80184850E944F057B
:100D900089819A8198278927982702C080E090E06E
:100DA0000F900F90DF91CF911F910F9108956F9247
:100DB0007F928F929F92AF92BF92CF92DF92EF92EB
:100DC000FF921F93CF93DF9300D0CDB7DEB7FC0126
:100DD0001485143008F061C06A014130F8E05F0703
:100DE00018F0C12C28E0D22E7A013B015C01CE0123
:100DF00001960E94302089819A810E946205812F8C
:100E00000E94E2144C0163E070E0812F0E943105E2
:100E1000873111F08C3121F48C149D0440F302C011
:100E2000C12CD12CCE0101960E94302089819A815B
:100E30000E9462059601A30160E070E0812F0E948C
:100E4000631460E270E0812F0E94C01262E070E0E3
:100E5000812F0E94310584FD16C063E070E0812F70
:100E60000E943105811106C081E090E0F501938375
:100E7000828313C0CE0101960E94302089819A811D
:100E80000E946205E3CF40E162E070E0812F0E94A2
:100E90001305CD2849F3C70102C080E090E00F9010
:100EA0000F90DF91CF911F91FF90EF90DF90CF9047
:100EB000BF90AF909F908F907F906F900895AF926A
:100EC000BF92CF92DF92EF92FF920F931F93CF9337
:100ED000DF9300D0CDB7DEB78C016B015A01FC0166
:100EE0008485843058F40E94BF16882321F0F801CD
:100EF00084850E94871684E0F8018487F601828148
:100F00009381A481B5810097A105B10509F462C060
:100F10008F3F9F4FAF4FBF4F09F45CC080910506D4
:100F2000882339F060E070E081E20E940717F82E14
:100F300002C084E0F82EF801F486F3E0FF1508F40F
:100F400049C0CE0101960E94302089819A810E9479
:100F50006205A6014E5F5F4F24E030E06CE070E078
:100F60008F2D0E940105B5018F2D0E94DD1664E0D2
:100F700070E08F2D0E94C0120E946B1B6B017C01E0
:100F8000F80184850E94BF16873139F18C3129F12F
:100F9000882301F10E946B1BAB01BC014C195D0958
:100FA0006E097F09F80185859685A0E0B0E0841779
:100FB0009507A607B70738F061E070E080E090E0A1
:100FC0000E94311BDDCFF80184850E94A31684E0C6
:100FD000F801848780E090E002C081E090E00F900B
:100FE0000F90DF91CF911F910F91FF90EF90DF90C5
:100FF000CF90BF90AF9008951F920F920FB60F92AF
:1010000011242F933F934F935F936F937F938F930D
:101010009F93AF93BF93EF93FF938091B900887F25
:10102000803609F49CC068F5883209F45BC090F4FE
:10103000803109F454C038F4882309F4F6C08830AC
:1010400009F44DC0F6C0883109F44CC0803209F46F
:101050005DC0EFC0803409F468C048F4803309F4FF
:1010600055C0883309F0E5C080931904D8C0803595
:1010700009F44FC0883509F45DC0883409F0D9C03F
:10108000D6C0883909F4C7C0A8F4883709F467C006
:1010900038F4883609F463C0803709F460C0C9C0E9
:1010A000883809F4B8C0803909F45FC0803809F085
:1010B000C0C05BC0803B09F486C038F4803A09F4B4
:1010C00066C0883A09F47FC0B4C0803C09F4A7C068
:1010D000883C09F4A4C0883B09F48AC0AAC0809166
:1010E0003C0410C090913B0480913A04981770F52D
:1010F000E0913B0481E08E0F80933B04F0E0E65EDC
:10110000FB4F80818093BB0085EC86C080931904DF
:101110008EC0E0913B0481E08E0F80933B04809170
:10112000BB00F0E0E65EFB4F808390913B04809132
:101130003A046EC0E0913B0481E08E0F80933B0443
:101140008091BB00F0E0E65EFB4F8083809142041B
:1011500081116DC081E08093410484EA61C083E025
:101160008093430410921804CFCF809118048032EA
:1011700008F051C0E091180481E08E0F80931804AC
:101180008091BB00F0E0E850FC4F8083BDCF85EC40
:101190008093BC001092430480911804803230F494
:1011A000E0911804F0E0E850FC4F108260911804C0
:1011B00070E0E0913D04F0913E0488EF93E00995E2
:1011C0001092180436C084E0809343041092F70311
:1011D0001092F603E0913F04F0914004099580914C
:1011E000F603811105C081E08093F6031092D603C7
:1011F000E091F70381E08E0F8093F703F0E0EA526D
:10120000FC4F80818093BB009091F7038091F6039F
:10121000981708F479CF85E88093BC000AC085EC64
:101220008093BC001092430404C0109219040E94E1
:101230006701FF91EF91BF91AF919F918F917F9146
:101240006F915F914F913F912F910F900FBE0F9033
:101250001F901895CF93FC01C48121E02093B50322
:10126000C093940310924504109244048385682B24
:101270008DE895E00E94F30190914404913208F0CA
:1012800045C0809143048111FCCF82E080934304E8
:1012900081E0809342048FEF8093190410923B0405
:1012A00090933A04A5E9B3E0EAE1F4E080E098170E
:1012B00021F02D9121938F5FFACF10923C04809101
:1012C0003C04CC0FC82BC0933C0480914104813076
:1012D00061F41092410480913C048093BB008091A2
:1012E000BC0083FDF8CF85EC01C085EE8093BC0087
:1012F000809143048230E1F3809119048F3F31F0F3
:1013000080911904803211F08091190410924504E3
:10131000109244041092B503CF9108950F931F9338
:10132000CF938C01C62F0E942A096C2F6460C801DC
:101330000E942A096C2F6B7FC8010E942A0983EC46
:1013400090E00197F1F7CF911F910F9108950F93BE
:101350001F93CF93DF938C01C62FD42F607F642B14
:101360000E948E0980E1C89FB00111246D2BC80135
:10137000DF91CF911F910F910C948E0941E00E9453
:10138000A70981E090E00895CF93DF93C0E0D0E01B
:1013900065ED72E0CE01895C9A4F0E948B1826960B
:1013A000C033D105A9F780E090E0A0ECBFE78093BF
:1013B000670590936805A0936905B0936A058093CB
:1013C0006B0590936C05A0936D05B0936E058093AB
:1013D0006F0590937005A0937105B093720565ED4C
:1013E00072E085E795E00E948B1865ED72E08BE76F
:1013F00095E00E948B1865ED72E081E895E00E940F
:101400008B1865ED72E087E895E0DF91CF910C9441
:101410008B1840E061E08EEA95E00E94A7098BE31B
:101420009FE10197F1F708958F929F92AF92BF923B
:10143000CF92DF92EF92FF920F931F93CF93DF93A0
:10144000CDB7DEB7A9970FB6F894DEBF0FBECDBFFC
:101450005A0165ED72E0CE0184960E94C71837E309
:10146000E32E35E0F32ECC24C394D12C11E0D70128
:1014700014968D919C911597892B09F479C01111BF
:1014800021C067ED71E0CE0101960E94C718BE0130
:101490006C5D7F4FCE0142960E94BE18BE016F5F09
:1014A0007F4FCE0142960E943718BC01CE01849630
:1014B0000E94A218CE0142960E94B918CE01019650
:1014C0000E94B91868EE71E0CE0142960E94C718DA
:1014D000198E188E1B8E1A8E1D8E1C8E4AE0BE0130
:1014E0006F5F7F4FC6010E94AC28BE016F5F7F4FC8
:1014F000CE0148960E948B1869ED71E0CE010196ED
:101500000E94C718BE016C5D7F4FCE014E960E94AF
:10151000BE18BE016F5F7F4FCE014E960E943718F6
:10152000BE01685E7F4F0E943718BE016E5E7F4F1E
:101530000E943718B7010E943718BC01CE0184966B
:101540000E94A218CE014E960E94B918CE010196B3
:101550000E94B918CE0148960E94B918CE01429651
:101560000E94B91865ED72E0C7010E948B1810E067
:10157000BFEFCB1ADB0AE6E0EE0EF11CF9E0CF1666
:10158000D10409F074CF609167057091680580916E
:10159000690590916A059B01AC010E943D2D811166
:1015A00066C0111121C067ED71E0CE0101960E9465
:1015B000C718BE016C5D7F4FCE0142960E94BE18D7
:1015C000BE016F5F7F4FCE0142960E943718BC016B
:1015D000CE0184960E94A218CE0142960E94B918AC
:1015E000CE0101960E94B918409167055091680597
:1015F0006091690570916A05CE0101960E94B41F41
:101600006FED71E0CE0142960E94C718BE016C5D7D
:101610007F4FCE0148960E94BE18BE016E5E7F4F7E
:10162000CE0148960E943718BE016F5F7F4F0E941F
:101630003718BC01CE0184960E94A218CE014896AC
:101640000E94B918CE0142960E94B918CE010196A7
:101650000E94B91880E090E0A0ECBFE78093670596
:1016600090936805A0936905B0936A0510E06091B6
:101670006B0570916C0580916D0590916E059B01D5
:10168000AC010E943D2D811166C0111121C067ED92
:1016900071E0CE0101960E94C718BE016C5D7F4FBC
:1016A000CE0142960E94BE18BE016F5F7F4FCE01F1
:1016B00042960E943718BC01CE0184960E94A2185F
:1016C000CE0142960E94B918CE0101960E94B91827
:1016D00040916B0550916C0560916D0570916E05A0
:1016E000CE0101960E94B41F64EE71E0CE014296D5
:1016F0000E94C718BE016C5D7F4FCE0148960E94C4
:10170000BE18BE016E5E7F4FCE0148960E9437180C
:10171000BE016F5F7F4F0E943718BC01CE018496D7
:101720000E94A218CE0148960E94B918CE01429696
:101730000E94B918CE0101960E94B91880E090E08D
:10174000A0ECBFE780936B0590936C05A0936D05AB
:10175000B0936E0510E060916F05709170058091F7
:101760007105909172059B01AC010E943D2D811184
:1017700066C0111121C067ED71E0CE0101960E9493
:10178000C718BE016C5D7F4FCE0142960E94BE1805
:10179000BE016F5F7F4FCE0142960E943718BC0199
:1017A000CE0184960E94A218CE0142960E94B918DA
:1017B000CE0101960E94B91840916F0550917005B5
:1017C0006091710570917205CE0101960E94B41F5F
:1017D0006AEE71E0CE0142960E94C718BE016C5DB0
:1017E0007F4FCE0148960E94BE18BE016E5E7F4FAD
:1017F000CE0148960E943718BE016F5F7F4F0E944E
:101800003718BC01CE0184960E94A218CE014896DA
:101810000E94B918CE0142960E94B918CE010196D5
:101820000E94B91880E090E0A0ECBFE780936F05BC
:1018300090937005A0937105B093720510E08091AC
:10184000790590917A05892B09F45AC0111121C0AC
:1018500067ED71E0CE0101960E94C718BE016C5D74
:101860007F4FCE0142960E94BE18BE016F5F7F4F30
:10187000CE0142960E943718BC01CE0184960E9488
:10188000A218CE0142960E94B918CE0101960E947C
:10189000B91865E775E0CE0101960E94BE1865EFA4
:1018A00071E0CE0142960E94C718BE016C5D7F4F69
:1018B000CE0148960E94BE18BE016E5E7F4FCE01DB
:1018C00048960E943718BE016F5F7F4F0E943718FD
:1018D000BC01CE0184960E94A218CE0148960E94B7
:1018E000B918CE0142960E94B918CE0101960E9405
:1018F000B91865ED72E085E795E00E948B1810E05D
:1019000080917F0590918005892B09F45AC01111AF
:1019100021C067ED71E0CE0101960E94C718BE019B
:101920006C5D7F4FCE0142960E94BE18BE016F5F74
:101930007F4FCE0142960E943718BC01CE0184969B
:101940000E94A218CE0142960E94B918CE010196BB
:101950000E94B9186BE775E0CE0101960E94BE188F
:101960006DEF71E0CE0142960E94C718BE016C5D1A
:101970007F4FCE0148960E94BE18BE016E5E7F4F1B
:10198000CE0148960E943718BE016F5F7F4F0E94BC
:101990003718BC01CE0184960E94A218CE01489649
:1019A0000E94B918CE0142960E94B918CE01019644
:1019B0000E94B91865ED72E08BE795E00E948B18E4
:1019C00010E08091850590918605892B09F45AC015
:1019D000111121C067ED71E0CE0101960E94C71878
:1019E000BE016C5D7F4FCE0142960E94BE18BE01C3
:1019F0006F5F7F4FCE0142960E943718BC01CE0127
:101A000084960E94A218CE0142960E94B918CE0177
:101A100001960E94B91861E875E0CE0101960E9416
:101A2000BE1866E072E0CE0142960E94C718BE0161
:101A30006C5D7F4FCE0148960E94BE18BE016E5E5F
:101A40007F4FCE0148960E943718BE016F5F7F4FCF
:101A50000E943718BC01CE0184960E94A218CE01C4
:101A600048960E94B918CE0142960E94B918CE013C
:101A700001960E94B91865ED72E081E895E00E9438
:101A80008B1810E080918B0590918C05892B09F4BF
:101A90005AC0111121C067ED71E0CE0101960E947C
:101AA000C718BE016C5D7F4FCE0142960E94BE18E2
:101AB000BE016F5F7F4FCE0142960E943718BC0176
:101AC000CE0184960E94A218CE0142960E94B918B7
:101AD000CE0101960E94B91867E875E0CE01019623
:101AE0000E94BE186DE072E0CE0142960E94C718B7
:101AF000BE016C5D7F4FCE0148960E94BE18BE01AC
:101B00006E5E7F4FCE0148960E943718BE016F5F10
:101B10007F4F0E943718BC01CE0184960E94A21804
:101B2000CE0148960E94B918CE0142960E94B9187B
:101B3000CE0101960E94B91865ED72E087E895E044
:101B40000E948B1802C011112EC1BE016C5D7F4F27
:101B5000CE0148960E94BE180091310510913205C1
:101B600020913305309134058091CE059091CF05B9
:101B7000A091D005B091D105081719072A073B0796
:101B800039F480912D0590912E05892BF1F40EC129
:101B900080912B0590912C05DC01ED91FC91068440
:101BA000F785E02D409135055091360567EC71E0E1
:101BB0007A8369830B831C832D833E83BE016F5F11
:101BC0007F4F099521E0892B09F420E060912D05D4
:101BD00070912E056115710591F080912B05909102
:101BE0002C054091350550913605DC01ED91FC91B5
:101BF0000088F189E02D0995892B21F4CDC022239D
:101C000009F4CAC069E172E0CE0142960E94C71889
:101C1000BE01685E7F4FCE0101960E94BE18BE01D4
:101C20006E5E7F4FCE0101960E943718BC01CE0137
:101C300048960E94A218CE0101960E94B918CE01C2
:101C400042960E94B91864ED72E0CE0142960E945D
:101C5000C718BE01685E7F4FCE0101960E94BE1874
:101C6000BE016E5E7F4FCE0101960E943718BC0107
:101C7000CE0148960E94A218CE0101960E94B91882
:101C8000CE0142960E94B91868E272E080912B055D
:101C900090912C050E945312892B09F4C9C0209100
:101CA0002D0530912E0580912B0590912C05232B2D
:101CB00059F160E472E00E945312892B09F4B8C014
:101CC00060912D0570912E0580912B0590912C052A
:101CD0000E945312892B09F4ABC063ED72E080912E
:101CE0002B0590912C050E945312892B09F4A0C05A
:101CF00067E472E080912B0590912C050E945312AD
:101D0000892B09F495C003C06BE572E0ECCF66E760
:101D100072E080912B0590912C050E945312892B23
:101D200009F486C063E872E080912B0590912C0540
:101D30000E945312892B09F47BC063ED72E08091FD
:101D40002B0590912C050E945312892B09F470C029
:101D5000A114B10409F458C06BEA72E080912B051C
:101D600090912C050E945312892B09F461C0B50192
:101D700080912B0590912C050E945312892B09F418
:101D800057C063ED72E080912B0590912C050E9465
:101D90005312892BC9F54CC003ED1EEFCE014896B6
:101DA0000E94B918A4C10EE21FEFA1C180912B05BA
:101DB00090912C05DC01ED91FC910088F189E02DDA
:101DC00040E550E06FED72E00995892B09F01ACFDC
:101DD00080912B0590912C05DC01ED91FC910684FE
:101DE000F785E02D27EC31E03A83298328EB2B831C
:101DF0002AE62C8329E92D8325E92E8340E550E04E
:101E0000BE016F5F7F4FF7CE62EF72E080912B05CE
:101E100090912C050E945312892B51F060EC72E0D6
:101E200080912B0590912C050E945312892B41F42F
:101E300080912B0590912C050E94CB1E8C01AECF7A
:101E40004C8D5D8D60E070E02AE080912B059091D3
:101E50002C050E94DC18892B59F361ED72E080910A
:101E60002B0590912C050E945312892B09F3809128
:101E70002B0590912C054C8D5D8D688D798DDC0145
:101E8000ED91FC910280F381E02D0995892B81F27F
:101E900065ED72E0CE0142960E94C7180E946B1B4E
:101EA0006B017C0180912B0590912C05DC01ED915B
:101EB000FC910084F185E02D0995892B71F40E9435
:101EC0006B1BDC01CB018C199D09AE09BF09883859
:101ED0009341A105B10508F4C1C080912B059091F3
:101EE0002C05DC01ED91FC910084F185E02D099534
:101EF000892B09F47CC066ED72E080912B059091EE
:101F00002C050E94051F811105C021EDC22E2EEF68
:101F1000D22E71C000912B0510912C05C8010E9492
:101F2000841FFC0197FD11C08D32910509F49DC0FD
:101F3000C0970A9708F499C0D801ED91FC910284EA
:101F4000F385E02DC8010995E9CFC12CD12C76018C
:101F5000B8ECCB16D10409F04EC063ED72E080916D
:101F60002B0590912C050E94051F882371F262EDCC
:101F700072E080912B0590912C050E94051F88230B
:101F800021F2E0902B05F0902C0565ED72E0CE017A
:101F900001960E94C718C7010E94D51E97FD1BC05D
:101FA0008E8F1F8E0D811E810F5F1F4FB801CE01D6
:101FB00001960E941018882371F329813A818D813E
:101FC0009E81BE01625E7F4F820F931F0E94442F4D
:101FD0001E830D83E0CFBE016F5F7F4FCE0142961F
:101FE0000E94A218CE0101960E94B91804C090ED7B
:101FF000C92E9EEFD92E00912B0510912C05E8ECEF
:10200000CE16D10449F0D801ED91FC910488F589F0
:10201000E02DC80109951CC08A899B89009729F089
:102020000E9465284B015C0103C0812C912C540156
:10203000D801ED91FC910488F589E02DC80109953E
:1020400089288A288B2821F48FE6C82E8EEFD82E77
:10205000CE0142960E94B9188601A0CE64E670E0D7
:1020600080E090E00E94311B1DCFC12CD12C760165
:10207000B12CE130F105E9F0ED32F105C1F0CF010D
:10208000C0970A97B0F4AAE0B0E0A70196010E94B9
:10209000272C6F01FF0FEE08FF08C60ED71EE81EA3
:1020A000F91EB0E3CB1AD108E108F10802C0BB2445
:1020B000B394D801ED91FC910284F385E02DC80121
:1020C0000995C8010E94841FFC01C0970A9788F2F5
:1020D000E130F10571F2BB2009F43ACFF094E094BD
:1020E000D094C094C11CD11CE11CF11C31CFCE0195
:1020F00084960E94B918C801A9960FB6F894DEBF5D
:102100000FBECDBFDF91CF911F910F91FF90EF9048
:10211000DF90CF90BF90AF909F908F900895CF9217
:10212000DF92EF92FF920F931F93CF93DF936C0197
:102130007A018B01C0E0D0E0CE15DF0581F0D80137
:102140006D918D01D601ED91FC910190F081E02D12
:10215000C6010995892B11F02196EECF7E01C701AA
:10216000DF91CF911F910F91FF90EF90DF90CF9073
:102170000895FC01538D448D252F30E0842F90E08D
:10218000821B930B541710F0CF9608950197089572
:10219000FC01918D828D981761F0828DDF01A80F6F
:1021A000B11D5D968C91928D9F5F9F73928F90E091
:1021B00008958FEF9FEF0895FC01918D828D981700
:1021C00031F0828DE80FF11D858D90E008958FEF3D
:1021D0009FEF0895FC01918D228D892F90E0805C06
:1021E0009F4F821B91098F739927089582E894E08D
:1021F0000E94EA1021E0892B09F420E0822F089543
:10220000FC01848DDF01A80FB11DA35ABF4F2C9193
:10221000848D90E001968F739927848FA689B78962
:102220002C93A089B1898C91837080648C93938D59
:10223000848D981306C00288F389E02D80818F7DFC
:1022400080830895EF92FF920F931F93CF93DF93B4
:10225000EC0181E0888F9B8D8C8D981305C0E889F7
:10226000F989808185FD26C0F62E0B8D10E00F5F69
:102270001F4F0F731127E02E8C8DE8120CC00FB684
:1022800007FCFACFE889F989808185FFF5CFCE0177
:102290000E940011F1CF8B8DFE01E80FF11DE35A72
:1022A000FF4FF0829FB7F8940B8FEA89FB898081FA
:1022B00080620AC09FB7F894EE89FF896083E8893D
:1022C000F98980818370806480839FBF81E090E082
:1022D000DF91CF911F910F91FF90EF900895CF93D1
:1022E000DF93EC01888D8823C9F0EA89FB8980811E
:1022F00085FD05C0A889B9898C9186FD0FC00FB6F0
:1023000007FCF5CF808185FFF2CFA889B9898C9130
:1023100085FFEDCFCE010E940011E7CFDF91CF9175
:10232000089580E090E0892B29F00E94F610811139
:102330000C9400000895FC0120812EBD9B012150CA
:10234000310941F051810DB407FEFDCF4EB55EBDA0
:102350004193F5CF61507109FC01E60FF71F0DB4F1
:1023600007FEFDCF8EB580830895E0910306F091BE
:1023700004069081809102068095892380830895C8
:102380008EBD00000DB407FEFDCF8EB508952091DF
:10239000050690E0233311F40C9601C04896982F5F
:1023A000990F990F990F80E008958F929F92AF92A5
:1023B000BF92CF92DF92EF92FF920F931F93CF9332
:1023C000DF937C01EB016C0182E0C80ED11C470158
:1023D000E5E08E0E911C00E010E0F60141916F01E6
:1023E00050E060E070E02AE0CE010E94DC185C0161
:1023F000E881F9810190F081E02D6EE2CE0109952E
:102400008A0D9B1D080F191F8C149D0431F7F701CD
:10241000458150E060E070E02AE0CE010E94DC18C7
:10242000800F911FDF91CF911F910F91FF90EF903F
:10243000DF90CF90BF90AF909F908F900895FF92C4
:102440000F931F93CF93DF9300D0CDB7DEB7F82E55
:1024500022E030E0AE014F5F5F4F66E270E00E9425
:102460004F0509811A8110270127102722E030E04B
:10247000AE014F5F5F4F66E270E08F2D0E944F0507
:1024800089819A819827892798270817190711F0B9
:102490008C01ECCFC8010F900F90DF91CF911F916D
:1024A0000F91FF9008956115710579F0FB0101907E
:1024B0000020E9F73197AF01461B570BDC01ED9186
:1024C000FC910280F381E02D099480E090E0089572
:1024D0001F920F920FB60F9211242F933F934F9399
:1024E0005F936F937F938F939F93AF93BF93EF937C
:1024F000FF9382E894E00E940011FF91EF91BF9159
:10250000AF919F918F917F916F915F914F913F918B
:102510002F910F900FBE0F901F9018951F920F9242
:102520000FB60F9211242F938F939F93EF93FF93E6
:10253000E0919204F09193048081E0919804F091ED
:10254000990482FD12C0908180919B048F5F8F73EC
:1025500020919C04821751F0E0919B04F0E0EE572B
:10256000FB4F958F80939B0401C08081FF91EF9179
:102570009F918F912F910F900FBE0F901F901895E4
:10258000CF93C82F462F61E070E00E94130561E0F1
:1025900070E08C2F0E9431058111F9CFCF91089501
:1025A000E0910306F0910406908180910206892B48
:1025B00080830895AF92BF92CF92DF92EF92FF9205
:1025C0000F931F93CF93DF9300D000D0CDB7DEB72A
:1025D0008C016B017A01809105068333F1F45B0174
:1025E0006801C40ED51E0C151D0509F460C00E94BB
:1025F000B5118FE00E94C011812F0E94C011802F61
:102600000E94C0110F5F1F4F80E00E94C011F501B2
:1026100081935F010E94D012E6CF8433F1F40E94CF
:10262000B51119830A838F2D8F778B83EC8264E039
:1026300070E0CE0101960E949B11A70160E070E05E
:10264000C6010E943D2FE114F10421F0B701C6013B
:102650000E949B110E94D0122AC00E94B5110F3F08
:10266000110509F020F419820A831B821DC017FD91
:102670000BC019820A8333E0169507953A95E1F766
:10268000007E08600B8310C0C80126E096958795F0
:102690002A95E1F719830A83807E0115104C10F406
:1026A000806101C088618B8363E070E0C2CFC701A5
:1026B0000F900F900F900F90DF91CF911F910F917E
:1026C000FF90EF90DF90CF90BF90AF900895AF92C2
:1026D000BF92CF92DF92EF92FF920F931F93CF930F
:1026E000DF93CDB7DEB728970FB6F894DEBF0FBEE5
:1026F000CDBF8C017B016A01809105068333E1F433
:102700005801A40EB51E0A151B0509F48BC00E94C2
:10271000B51180EF0E94C011812F0E94C011802F3F
:102720000E94C0110F5F1F4FF70181917F010E942E
:10273000C0110E94D012E7CF843321F50E94B51159
:1027400019830A838D2D80688B83CC8264E070E0CE
:10275000CE0101960E949B1187010C0D1D1DE016F4
:10276000F10669F0F70181917F010E94C011F7CF56
:10277000B6016D5F7F4FCE0101960E949B110E94B2
:10278000D01250C00E94B5110F3F110509F020F47E
:1027900019820A8384E01CC017FD0BC019820A83CA
:1027A00033E0169507953A95E1F7007E0C600B83B0
:1027B00010C0C80126E0969587952A95E1F7198300
:1027C0000A83807E0115104C10F4846101C08C6175
:1027D0008B8326E0C216D10498F420E0822F90E08B
:1027E0008C159D0528F6E4E0F0E0EC0FFD1FE80FE6
:1027F000F91FD701A80FB91F8C9180832F5FEECFEF
:1028000063E070E0CE0101960E949B1187010C0DE0
:102810001D1DF70181917F010E94C011E016F10694
:10282000C1F7ADCFC60128960FB6F894DEBF0FBE34
:10283000CDBFDF91CF911F910F91FF90EF90DF906F
:10284000CF90BF90AF900895CF93DF931F92CDB7F5
:10285000DEB741E050E0BE016F5F7F4F80E090E067
:102860000E94DA1289810F90DF91CF910895CF9362
:10287000DF931F92CDB7DEB7898341E050E0BE0100
:102880006F5F7F4F80E090E00E9467130F90DF91B1
:10289000CF910895CF93DF9380E80E943714C4E16D
:1028A000D0E00E942414882351F061E070E080E0C1
:1028B00090E00E94311B2197A1F780E001C081E0E8
:1028C000DF91CF9108957F928F929F92AF92BF92A6
:1028D000CF92DF92EF92FF920F931F93CF93DF93EC
:1028E00000D0CDB7DEB7782E8B014A01590122E026
:1028F00030E0AE014F5F5F4F64E270E00E944F0531
:10290000E980FA80FE24EF24FE24E00EF11E9701F8
:10291000377040910506072D10E0C801433311F4CC
:10292000089601C04096982F8827990F990F990F04
:10293000820F931F473319F4A501B40120C0A901E8
:102940004A0D5B1D41305840B8F360E078E06B0100
:10295000C21AD30AA601B4010E946713A5014C193B
:102960005D09B4016C0D7D1D80910506833339F539
:10297000085F1F4F902F990F990F990F80E00E94C9
:102980006713EA0CFB1CF982EA8222E030E0AE0118
:102990004F5F5F4F64E270E0872D0E9401050F904A
:1029A0000F90DF91CF911F910F91FF90EF90DF90EB
:1029B000CF90BF90AF909F908F907F900895005FD1
:1029C0001F4FD8CFEF92FF921F93CF93DF9300D08A
:1029D000CDB7DEB7182F22E030E0AE014F5F5F4F7A
:1029E00060E270E00E944F05E980FA80FE24EF2447
:1029F000FE2422E030E0AE014F5F5F4F60E270E006
:102A0000812F0E944F0589819A81982789279827CD
:102A1000E816F90611F07C01ECCF87E0189FF00171
:102A20001124E25AFB4FF582E482C7010F900F9008
:102A3000DF91CF911F91FF90EF900895FF920F9338
:102A40001F93CF93DF9300D0CDB7DEB7F82ECE0122
:102A500001960E94302089819A810E9462058F2D03
:102A60000E94E2148C0163E070E08F2D0E9431051A
:102A7000F82E0E94610587E1F81631F08CE1F81616
:102A800019F080E090E001C0C8010F900F90DF9135
:102A9000CF911F910F91FF9008951F93CF93DF93D4
:102AA00000D0CDB7DEB7182FCE0101960E9430209E
:102AB00089819A810E946205812F0E94C71127E0B7
:102AC000129FF0011124E25AFB4F228133813770AB
:102AD00041E050E0BE016F5F7F4F820F931F0E9465
:102AE000DA120E94610589810F900F90DF91CF91DA
:102AF0001F910895EF92FF920F931F93CF93DF934F
:102B000000D0CDB7DEB7482F87E0489F9001112451
:102B1000F901E25AFB4F7F01808191810097B9F45E
:102B2000142FCE0101960E94302089819A810E9443
:102B30006205812F0E941F128C010E946105F7011E
:102B400086819801281B3109C901318320830F90A8
:102B50000F90DF91CF911F910F91FF90EF9008950B
:102B60004F925F927F928F929F92AF92BF92CF923D
:102B7000DF92EF92FF920F931F93CF93DF9300D0DA
:102B8000CDB7DEB7782E6B014A01A82EB12C27E015
:102B9000829FC0011124AC01425A5B4F7A01FA01B5
:102BA00000811181CE0101960E94302089819A8195
:102BB0000E9462050815190554F4872D0E941F1202
:102BC000F70126818C01021B110911830083011575
:102BD0001105A9F463E070E0872D0E94310584316E
:102BE00009F480C0882309F47DC001E010E08C3135
:102BF00011F400E010E011950195110973C08016E1
:102C000091060CF4840187E08A9DF0018B9DF00D04
:102C10001124E25AFB4FE280F380C114D10459F130
:102C20002701F7E05F22872D0E94C711840D951DB3
:102C300020910506273319F4A801B6011AC098019E
:102C4000240D351D21303840B8F320E038E049012B
:102C500084189508A401B6010E94DA122601480CD6
:102C6000591C6801C818D908872D0E94C711A601F0
:102C7000B2010E94DA12E00EF11E87E08A9DF00197
:102C80008B9DF00D1124E25AFB4FF382E28280818A
:102C90009181801B910B918380832681A801420F33
:102CA000511D4A3F510510F4892BD9F487E08A9DC4
:102CB000F0018B9DF00D1124E25AFB4F1682F98230
:102CC000EA8222E030E0AE014F5F5F4F68E270E0E1
:102CD000872D0E94010560E470E0872D0E94C012DC
:102CE00001C046830E946105C8010F900F90DF91DB
:102CF000CF911F910F91FF90EF90DF90CF90BF90F9
:102D0000AF909F908F907F905F904F9008951F930A
:102D1000CF93DF9300D0CDB7DEB7182FCE01019649
:102D20000E94302089819A810E94620568E070E0EB
:102D3000812F0E94C0120E9461050F900F90DF91B9
:102D4000CF911F9108951F93CF93DF9300D0CDB7FC
:102D5000DEB7182FCE0101960E94302089819A811A
:102D60000E94620560E170E0812F0E94C0120E9403
:102D700061050F900F90DF91CF911F9108951F93E0
:102D8000CF93DF9300D0CDB7DEB7182FCE010196D9
:102D90000E94302089819A810E94620563E070E080
:102DA000812F0E943105182F0E946105812F0F90FD
:102DB0000F90DF91CF911F910895CF93DF9300D0B3
:102DC000CDB7DEB779836A8322E030E0AE014F5F92
:102DD0005F4F60E170E00E9401050F900F90DF915E
:102DE000CF910895CF93DF9300D0CDB7DEB779832D
:102DF0006A8322E030E0AE014F5F5F4F64E070E035
:102E00000E9401050F900F90DF91CF910895AF922E
:102E1000BF92CF92DF92EF92FF920F931F93CF93C7
:102E2000DF9300D000D000D0CDB7DEB7082F6B0104
:102E3000CE0101960E94302089819A810E9462050C
:102E40009E012F5F3F4F7901590110E063E070E070
:102E5000812F0E943105F50181935F018823D1F014
:102E60001F5F143099F710E0F70181917F018D31D8
:102E700061F0883151F08A51823038F01F5F143090
:102E800099F70E94610584E05CC060E170E0812FE9
:102E90000E94C012E12EF12C83EE93E00197F1F72E
:102EA000402F60E070E0812F0E9413054FEF62E039
:102EB00070E0812F0E941305C114D10411F0B601F6
:102EC00013C0809108019091090101968115F0ECE1
:102ED0009F0710F480E090EC909309018093080123
:102EE0006091080170910901812F0E94F21661E042
:102EF00070E0812F0E94C01227E02E9DC0012F9DFF
:102F0000900D11249C01225A3B4F7901F901118245
:102F1000108222E030E0AE014B5F5F4F68E270E06C
:102F2000812F0E944F058D819E81982789279827A0
:102F3000F701938382831682158214820E946105B1
:102F4000812F26960FB6F894DEBF0FBECDBFDF915E
:102F5000CF911F910F91FF90EF90DF90CF90BF9096
:102F6000AF9008950E942F2FCF93DF93EC018881BB
:102F70009981009711F00E94E02D198218821D821C
:102F80001C821B821A82DF91CF9108951F920F92AB
:102F90000FB60F9211242F933F938F939F93AF936C
:102FA000BF938091560490915704A0915804B0911A
:102FB00059043091550423E0230F2D3720F4019656
:102FC000A11DB11D05C026E8230F0296A11DB11D4C
:102FD000209355048093560490935704A09358046B
:102FE000B093590480915A0490915B04A0915C04C1
:102FF000B0915D040196A11DB11D80935A04909378
:103000005B04A0935C04B0935D04BF91AF919F916A
:103010008F913F912F910F900FBE0F901F90189599
:103020000F931F93CF93DF93EC01888199810097D1
:1030300029F02A813B812617370788F48B016F5FBF
:103040007F4F0E94692E009761F0998388831B83CC
:103050000A832C813D81232B11F4FC01108281E035
:1030600001C080E0DF91CF911F910F910895EF9201
:10307000FF920F931F93CF93DF93EC01FB01048129
:103080001581E080F180E114F104C9F0011511050A
:10309000C9F08C819D81080F191FB801CE010E94D3
:1030A0001018882361F0288139818C819D81B701B6
:1030B000820F931F0E94442F1D830C8303C0CE01F7
:1030C0000E94B417CE01DF91CF911F910F91FF9015
:1030D000EF900895EF92FF920F931F93CF93DF939A
:1030E000EC017B018A01BA010E941018811104C011
:1030F000CE010E94B41707C01D830C83B7018881DD
:1031000099810E94442FCE01DF91CF911F910F91A1
:10311000FF90EF900895CF93DF93EC016115710557
:1031200059F0FB0101900020E9F73197AF01461BF0
:10313000570B0E946A1802C00E94B417CE01DF919B
:10314000CF910895CF93DF93EC01FB01861797078A
:1031500061F0608171816115710529F044815581AB
:103160000E946A1802C00E94B417CE01DF91CF916D
:103170000895FC01808191810C94E02DFC01118265
:10318000108213821282158214820C94A218FC0100
:1031900011821082138212821582148261157105C8
:1031A00051F0FB0101900020E9F73197AF01461B78
:1031B000570B0C946A1808958F929F92AF92BF920A
:1031C000EF92FF920F931F93CF93DF93CDB7DEB7AC
:1031D000A1970FB6F894DEBF0FBECDBF7C01FA01F8
:1031E000CB0119A2223008F42AE08E010F5D1F4F97
:1031F000822E912CA12CB12CBF01A50194010E941B
:10320000692CF901CA01015011096A3014F4605D9A
:1032100001C0695CD8016C93232B242B252B61F70B
:10322000B801C7010E945312A1960FB6F894DEBFF1
:103230000FBECDBFDF91CF911F910F91FF90EF9007
:10324000BF90AF909F908F9008953FB7F894809172
:103250005A0490915B04A0915C04B0915D0426B582
:10326000A89B05C02F3F19F00196A11DB11D3FBFBE
:10327000BA2FA92F982F8827820F911DA11DB11D4C
:10328000BC01CD0142E0660F771F881F991F4A9548
:10329000D1F70895FC0187EC91E09183808312823D
:1032A0001382148215821386128648EE53E060E082
:1032B00070E0448755876687778721E231E0318760
:1032C0002087978B868B108E118E128E138E84E042
:1032D00080A308958F929F92AF92BF92CF92DF9278
:1032E000EF92FF921F93CF93DF93CDB7DEB72C976A
:1032F0000FB6F894DEBF0FBECDBF20910506222386
:1033000009F4B4C06B017C01CE0101960E9430200B
:1033100089819A810E9462055E0127E0A20EB11C9C
:10332000450110E063E070E0812F0E943105F40157
:1033300081934F018823C9F01F5F143099F710E083
:10334000F50181915F018D3159F0883149F08A5141
:10335000823030F01F5F143099F70E94610586C0FB
:1033600060E170E0812F0E94C012A12EB12C83EE8B
:1033700093E00197F1F742E860E070E0812F0E944E
:1033800013054FEF62E070E0812F0E941305C11416
:10339000D10411F0B60113C0809108019091090188
:1033A00001968115F0EC9F0710F480E090EC90936B
:1033B0000901809308016091080170910901812F32
:1033C0000E94F21686E0E7E1F1E0DE01119601903D
:1033D0000D928A95E1F7F70183818F778C83848141
:1033E0008D8385818E83A7014E5F5F4F24E030E09F
:1033F0006CE070E0812F0E940105B601812F0E94D0
:10340000DD1626E030E0AE014F5F5F4F66E070E012
:10341000812F0E94010561E070E0812F0E94C0129F
:1034200027E02A9DC0012B9D900D11249C01225A5A
:103430003B4F7901F9011182108222E030E0AE01A8
:10344000455F5F4F68E270E0812F0E944F058B85DA
:103450009C85982789279827F70193838283168272
:10346000158214820E946105812F01C084E02C9690
:103470000FB6F894DEBF0FBECDBFDF91CF911F9185
:10348000FF90EF90DF90CF90BF90AF909F908F9084
:10349000089590E0FC01EE59FE4F2491FC01E6579F
:1034A000FE4F3491FC01EA58FE4FE491EE2309F4FB
:1034B0003CC0222339F1233091F038F42130A9F0B7
:1034C000223001F584B58F7D12C0273091F028306D
:1034D000A1F02430B9F4809180008F7D03C08091E9
:1034E00080008F77809380000DC084B58F7784BD76
:1034F00009C08091B0008F7703C08091B0008F7DAC
:103500008093B000F0E0EE0FFF1FE855FE4FA5914D
:10351000B4919FB7F894611104C08C913095382311
:1035200002C0EC913E2B3C939FBF0895CF93DF9355
:1035300090E0FC01E657FE4F2491FC01EA58FE4F53
:103540008491882361F190E0880F991FFC01EE546B
:10355000FE4FC591D491FC01E855FE4FA591B49161
:10356000611109C09FB7F8948881209582238883D0
:10357000EC912E230BC0623061F49FB7F8948881E0
:10358000322F309583238883EC912E2B2C939FBF71
:1035900006C08FB7F894E8812E2B28838FBFDF9168
:1035A000CF9108951F93CF93DF93182FEB0161E024
:1035B0000E94961A209711F460E004C0CF3FD10515
:1035C00039F461E0812FDF91CF911F910C94491A5A
:1035D000E12FF0E0EE59FE4FE491E330F9F048F4CA
:1035E000E130B9F0E230A1F584B5806284BDC8BD98
:1035F00034C0E730E9F0E83019F1E43049F5809162
:103600008000806280938000D0938B00C0938A00FA
:1036100024C084B5806884BDC7BD1FC08091800070
:10362000806880938000D0938900C093880015C083
:103630008091B00080688093B000C093B3000DC04B
:103640008091B00080628093B000C093B40005C048
:10365000C038D1050CF0B5CFAFCFDF91CF911F911E
:1036600008958F929F92AF92BF92CF92DF92EF9286
:10367000FF926B017C010E9425194B015C01C11472
:10368000D104E104F104F1F00E942519DC01CB0121
:1036900088199909AA09BB09883E9340A105B1057B
:1036A00070F321E0C21AD108E108F10888EE880E13
:1036B00083E0981EA11CB11CC114D104E104F104E3
:1036C00019F7DDCFFF90EF90DF90CF90BF90AF90D4
:1036D0009F908F9008952FB7F89460915604709141
:1036E000570480915804909159042FBF0895CF92A8
:1036F000DF92EF92FF920F931F93CF93DF93CDB79B
:10370000DEB7C054D1400FB6F894DEBF0FBECDBFB8
:103710000E946B1B0091C3051091C4052091C50543
:103720003091C6056B017C01C01AD10AE20AF30A86
:1037300040EDC41647E0D406E104F10418F480918A
:10374000CB05BCC06093C3057093C4058093C505C9
:103750009093C6051092BE051092BD051092BC054F
:103760001092BB051092BA0561E08091BF050E94DE
:10377000491A6AEF70E080E090E00E94311B61E03E
:103780008091BF050E94961A60E08091BF050E945B
:10379000491A64E170E080E090E00E94311BF894E7
:1037A00061E08091BF050E94491A8BE990E0019782
:1037B000F1F762E08091BF050E94961A83E290E0E3
:1037C0000197F1F780E00E947E22672B682B692B1E
:1037D00021F41092CB0578943EC081E00E947E22B5
:1037E000672B682B692BA9F38E010F5F1F4F6E01AA
:1037F0008FEBC81A8EEFD80A780180E00E947E22F3
:10380000F701608371838283938381E00E947E222B
:10381000F7016483758386839783F8E0EF0EF11CCC
:10382000EC14FD0451F7789420E030E0F801C080FA
:10383000D180E280F3804481558166817781C11413
:10384000D104E104F10429F0411551056105710528
:1038500021F41092CB0580E031C0F90183E0F595A9
:10386000E7958A95E1F7E654FA4F8081880FC416F0
:10387000D506E606F70608F4816080832F5F3F4F88
:10388000085F1F4F2832310589F62091BE0530E0D0
:103890004091BA058091BB0590E0840F911D409145
:1038A000BC05840F911D4091BD05840F911D992782
:1038B0002817390771F681E08093CB05C05CDE4F95
:1038C0000FB6F894DEBF0FBECDBFDF91CF911F9131
:1038D0000F91FF90EF90DF90CF9008954F925F92FD
:1038E0006F927F928F929F92AF92BF92CF92DF9210
:1038F000EF92FF920F931F93CF93DF93CDB7DEB775
:1039000063970FB6F894DEBF0FBECDBF7C015B019D
:103910003A01FB0120E080E090E06AE0319133233E
:1039200009F140ED430F4A3080F4689FA001699F80
:10393000500D1124CA01C097830F911D37FD9A9530
:103940008F3F910559F350F313C03E3289F4233071
:1039500079F0D301A20FB11D12968C932F5F80E0F6
:1039600090E0DCCF233021F4F301858381E021C096
:10397000F70142815381648175818091270590917F
:103980002805A0912905B0912A05481759076A070B
:103990007B0709F491C10E946B1B8701085F1F4FD1
:1039A0006F7077277C5FC8010E94F103813019F0A6
:1039B00080E090E0D9C187EC91E09A838983F70198
:1039C00082819381A481B5818B839C83AD83BE83E7
:1039D00045E350E0BE016F5F7F4FC8010E94EE05D6
:1039E000892B19F4C12CD12C62C10E946B1BF701E9
:1039F0007783668342E050E0B7016A5F7F4FC8017A
:103A00000E94650581E090E09A83898342E050E05E
:103A1000BE016F5F7F4FC8010E94650580E091E0A5
:103A20009A83898342E050E0BE016F5F7F4FC801F7
:103A30000E9465051A82198242E050E0BE016F5F64
:103A40007F4FC8010E94650542E050E0BE016F5FF4
:103A50007F4FC8010E94650542E050E0BE016F5FE4
:103A60007F4FC8010E9465054501F50180818823CB
:103A700001F164015601F60181912F01882321F0A3
:103A80008E3211F06201F6CFC818D9081C141D043B
:103A900074F4CD8641E050E0BE01635F7F4FC80102
:103AA0000E946505A601B401C8010E946505420196
:103AB000DCCF1D8641E050E0BE01635F7F4FC8014F
:103AC0000E946505C12CDD24D394DA82C98242E0CC
:103AD00050E0BE016F5F7F4FC8010E946505DA822A
:103AE000C98242E050E0BE016F5F7F4FC8010E9473
:103AF0006505C8010E94AC05892B09F473CFE3E08A
:103B0000AE2EB12C230122E0420E511C0E946B1BF1
:103B10003B014C01C8010E942E0318161906A4F09F
:103B20000E946B1BDC01CB0186199709A809B90912
:103B300089389341A105B105D0F462E370E080E0DB
:103B400090E00E94311BE6CFF701428153816481EE
:103B50007581808D918DA28DB38D481759076A07A5
:103B60007B0749F4848D958DC59729F409C0CC2431
:103B7000CA94DC2C93C05EEFC52EDD24DA948EC08F
:103B8000F70181A192A10C970CF4E9C04CE050E040
:103B9000BE016F5F7F4FC8010E94BA028B819C817A
:103BA0009827892798279A8B898BF7014681578117
:103BB00029813A814217530709F0C2C097FFC0C05C
:103BC0008F709270892B09F0C0C06F807884762442
:103BD000672476246114710409F4BCC0C12CD12C73
:103BE0008D819E81982789279827C816D90608F4C1
:103BF00066C0812C912C41E050E0BE016D5E7F4F8C
:103C0000C8010E94BA024B89842F807C09F076C0DB
:103C1000442331F050E060E070E0C8010E94BA0235
:103C20008B898111E8CF42E050E0BE01615F7F4F98
:103C3000C8010E94BA0242E050E0BE01635F7F4FBC
:103C4000C8010E94BA0244E050E060E070E0C801A0
:103C50000E94BA0242E050E0BE016F5E7F4FC80191
:103C60000E94BA028F85988949895A8981159140A5
:103C700009F04DC0CD84DE84DC24CD24DC2481E039
:103C8000C816D10409F043C04115544009F053C08F
:103C900044E050E0B201C8010E94BA0221E0A21A39
:103CA000B10829F0FFEFCF16DF0609F42FCFC801C6
:103CB0000E948302C60158C08EEF9FEF55C041E0BD
:103CC00050E0BE01635F7F4FC8010E94BA024D857C
:103CD000442331F050E060E070E0C8010E94BA0275
:103CE0008D858111ECCF44E050E060E070E0C801C8
:103CF0000E94BA02FFEFCF1ADF0A72CF41E050E014
:103D000060E070E0C8010E94BA021B8A89CF542784
:103D10004527542760E070E0C8010E94BA02FFEF17
:103D20008F1A9F0A6814790409F065CF96EFC92E9F
:103D3000DD24DA94B3CF77EFC72EDD24DA94AECF4B
:103D40004CEFC42EDD24DA94A9CF3BEFC32EDD2443
:103D5000DA94A4CF2AEFC22EDD24DA949FCF8DEF20
:103D6000C82EDD24DA949ACF63960FB6F894DEBF9E
:103D70000FBECDBFDF91CF911F910F91FF90EF90BC
:103D8000DF90CF90BF90AF909F908F907F906F907B
:103D90005F904F900895DC01ED91FC910488F589C6
:103DA000E02D099582ED9EEF08950F931F93CF9319
:103DB000DF93EC010E946B1B688779878A879B875A
:103DC000E881F9810284F385E02DCE01099597FF02
:103DD00017C00E946B1B088519852A853B85DC016D
:103DE000CB01801B910BA20BB30B0C811D812E818B
:103DF0003F8180179107A207B30710F38FEF9FEF62
:103E0000DF91CF911F910F9108956F927F928F92C2
:103E10009F92AF92BF92CF92DF92EF92FF920F9359
:103E20001F93CF93DF93FB0101900020E9F73197B7
:103E30007F01E61AF70A09F44FC0EB015C0100E0CC
:103E400010E0C5010E94D51E97FD49C0FE01E00F9C
:103E5000F11F2081022E000C330B8217930789F18A
:103E600001151105A9F13F019801A901415051091E
:103E7000F30162913F01062E000C770B861797071E
:103E8000E1F44115510531F16E01D801A41BB50BC8
:103E9000AC0FBD1F60E070E0F60181906F019D9056
:103EA000891429F064177507A9F09A01DECF6F5FB6
:103EB0007F4F6417750780F3F5CF41155105A9F7BA
:103EC00007C098012F5F3F4FE216F30619F404C0B4
:103ED00020E030E08901B5CF20E030E002C02FEFD4
:103EE0003FEF81E0232B09F080E0DF91CF911F911C
:103EF0000F91FF90EF90DF90CF90BF90AF909F9089
:103F00008F907F906F9008950F931F93CF93DF93BF
:103F1000EC010E946B1B688779878A879B87E88101
:103F2000F9810484F585E02DCE01099597FF17C02E
:103F30000E946B1B088519852A853B85DC01CB0116
:103F4000801B910BA20BB30B0C811D812E813F8135
:103F500080179107A207B30710F38FEF9FEFDF9150
:103F6000CF911F910F910895EF92FF920F931F939E
:103F7000CF93DF93CDB7DEB7A1970FB6F894DEBF2E
:103F80000FBECDBF7C01CB01BA01F70111821082B7
:103F900013821282158214828E010F5F1F4F22E05E
:103FA00044E00E944528BC01C7010E948B18A196DD
:103FB0000FB6F894DEBF0FBECDBFDF91CF911F913A
:103FC0000F91FF90EF9008950F931F93CF93DF937E
:103FD000CDB7DEB760970FB6F894DEBF0FBECDBF8A
:103FE0008C01CB014AE0BE016F5F7F4F0E948C289D
:103FF000BE016F5F7F4FCE010B960E94C7189801DC
:104000002150310928303105B0F48F8598898F3FD0
:10401000910509F098F446E0429FC001439F900D3E
:104020001124BE01655F7F4F895C9A4F0E94A218E0
:1040300008EC10E005C007E31FEF02C00BE91FEF1B
:10404000CE010B960E94B918C80160960FB6F8947D
:10405000DEBF0FBECDBFDF91CF911F910F910895AD
:1040600020E5FC01208321E021830895CF92DF9297
:10407000EF92FF920F931F93CF93DF93CDB7DEB7ED
:10408000C654D1090FB6F894DEBF0FBECDBFFC01F8
:1040900082819381A481B58123968CAF9DAFAEAF11
:1040A000BFAF239721E023962FAF239723964CADE4
:1040B0005DAD6EAD7FAD23974BAB5CAB6DAB7EABB7
:1040C00089AF9AAFABAFBCAF8DA79EA7AFA7B8AB78
:1040D00028AB4DA55EA56FA578A94FA358A769A7E2
:1040E0007AA72EAB4BA95CA96DA97EA949A35AA3B7
:1040F0006BA37CA38B8F9C8FAD8FBE8F47EC51E061
:104100005C8B4B8B3FEF3D8B3E8B3F8B188E5E87DE
:104110004D872AA7CFA0D8A4E9A4FAA4CF86D88A2D
:10412000E98AFA8A2CA309A11AA12BA13CA109872B
:104130001A872B873C875A8349838B839C83AD8363
:10414000BE8380910806811123C160E372E080E0A4
:1041500090E00E94311B1FB7F894809107068111EF
:1041600027C0E0E8F1E08491E4E9F1E09491E82FE0
:10417000F0E0EE0FFF1FEE54FE4FA591B491EC91CD
:10418000E92321F461E08AE00E94491A61E08AE0B3
:104190000E94961A8CB580618CBD8CB580648CBDF4
:1041A00061E08DE00E94961A61E08BE00E94961A11
:1041B000809107068F5F809307061FBF80910A01D9
:1041C000282F30E0F901EA58FE4FE491F0E0EE0FBD
:1041D000FF1FE855FE4F45915491509304064093BC
:1041E0000306F901E657FE4FE491E093020661E011
:1041F0000E94961A0E94D012CE018D5B9F4F0E94A2
:10420000302025968EAD9FAD25970E94620584E3F0
:10421000809305060E944A14882319F188E00E94C1
:1042200037140E9424148830E1F480E10E9437148E
:104230000E9424148031A9F480E00E9437140E9467
:10424000241481110EC041E050E0BE016D5B7F4F30
:104250008FE190E00E94DA1224968FAD249783308C
:10426000B1F187E3809305060E944A14882309F47C
:1042700051C088E00E9437140E942414883009F04D
:1042800049C080E10E9437140E942414182F803105
:1042900009F040C080E00E9437140E94241481116C
:1042A00039C041E050E0BE016D5B7F4F89E390E093
:1042B0000E94DA1224968FAD2497843059F510931A
:1042C00006060E94610581E08093080661C080E4D3
:1042D0008093060610E042E06EE170E0812F0E94BC
:1042E000130542E06FE170E0812F0E9413051F5F0C
:1042F000143089F740E06EE170E0812F0E941305D1
:1043000040E06FE170E0812F0E9413051F5F1830BD
:1043100089F7D7CF83E3809305060E944A14882348
:1043200091F180E10E9437140E942414803159F5E4
:1043300082E10E9437140E942414823121F580E02A
:104340000E9437140E94241481111DC084E08093C0
:10435000060615E527961FAF279741E050E0BE01FE
:104360006A5B7F4F8BE190E00E94671326961FAF38
:10437000269741E050E0BE016B5B7F4F8AE190E001
:104380000E9467139ECF109205060E9461053EC0F1
:10439000CE018D5B9F4F0E94302025968EAD9FAD44
:1043A00025970E94620546E050E06BE071E089E0ED
:1043B00090E00E94671344E050E0BE016D5F7F4FC4
:1043C0008FE090E00E94671344E050E0BE01615F1F
:1043D0007F4F81E090E00E94671344E050E0BE010F
:1043E0006B5E7F4F85E090E00E9467130E9461053D
:1043F00081E08C8789859A85AB85BC858093210572
:1044000090932205A0932305B0932405CA5BDF4F48
:104410000FB6F894DEBF0FBECDBFDF91CF911F91D5
:104420000F91FF90EF90DF90CF900895CF93DF939F
:10443000CDB7DEB728970FB6F894DEBF0FBECDBF5D
:1044400098E0EFECF1E0DE01119601900D929A9563
:10445000E1F79091B605981710F48FEF890FFE01E0
:104460003196E80FF11DE80FF11D6081606840E0B2
:104470008EEA95E028960FB6F894DEBF0FBECDBF4A
:10448000DF91CF910C94A709CF92DF92EF92FF9228
:104490000F931F93CF93DF936B01770FEE08FF0805
:1044A000F7FE1FC0EC01E881F9810190F081E02D59
:1044B0006DE209958C0144275527BA014C195D0915
:1044C0006E097F092AE0CE010E94DC18800F911F3F
:1044D000DF91CF911F910F91FF90EF90DF90CF90E0
:1044E00008952AE0B701A601DF91CF911F910F91A6
:1044F000FF90EF90DF90CF900C94DC188F929F92FA
:10450000AF92BF92CF92DF92EF92FF92CF93DF9361
:10451000A091C105882311F03A2F01C030E08091AD
:10452000C20590E0880F991F82569E4FC090C70524
:10453000D090C805E090C905F090CA0540E050E071
:10454000BA01FC01C591D49128812A23231314C0F8
:104550004A015B012FEF821A920AA20AB20A4C1595
:104560005D056E057F0518F4B501A401EACF30E0C2
:1045700020E080E090E003C0342F252FCB01632F93
:10458000722FDF91CF91FF90EF90DF90CF90BF908F
:10459000AF909F908F900895CF93DF9387E895E039
:1045A0000E94B91881E895E00E94B9188BE795E060
:1045B0000E94B91885E795E00E94B91887E395E055
:1045C000892B61F0C0E0D0E0CE018F599A4F0E9454
:1045D000B9182697C03D8FEFD807B1F7DF91CF917B
:1045E0000895CF93DF93CDB7DEB7A0970FB6F894B9
:1045F000DEBF0FBECDBF789484B5826084BD84B524
:10460000816084BD85B5826085BD85B5816085BDCD
:1046100080916E00816080936E0010928100809185
:10462000810082608093810080918100816080930D
:104630008100809180008160809380008091B10032
:1046400084608093B1008091B00081608093B0005D
:1046500080917A00846080937A0080917A008260F1
:1046600080937A0080917A00816080937A008091B3
:104670007A00806880937A001092C100E0919204E1
:10468000F091930482E08083E0918E04F0918F0496
:104690001082E0919004F091910480E18083109267
:1046A0009A04E0919604F091970486E08083E0916B
:1046B0009404F0919504808180618083E09194045A
:1046C000F0919504808188608083E0919404F0915A
:1046D0009504808180688083E0919404F091950432
:1046E00080818F7D808361E083E00E94961A61E083
:1046F00085E00E94961A61E086E00E94961A61E0C9
:1047000088E00E94961A61E089E00E94961A61E0B2
:1047100088E00E94491A18E01093B90560E08EEA1B
:1047200095E00E942A0910924704109246041092C4
:104730004504109244041092430481E080934204A3
:104740001092410461E082E10E94491A61E083E134
:104750000E94491A8091B9008E7F8093B9008091A0
:10476000B9008D7F8093B90088E48093B80085E418
:104770008093BC0089E991E09093400480933F04CA
:104780008AE991E090933E0480933D041092B30532
:104790008091B805823010F01093B3058093B60570
:1047A00062E370E080E090E00E94311B6091B90507
:1047B0008EEA95E00E942A0968EE73E080E090E0BE
:1047C0000E94311B60E38EEA95E00E948E090BE4A3
:1047D00016E4C8010197F1F760E38EEA95E00E94C4
:1047E0008E09C8010197F1F760E38EEA95E00E9417
:1047F0008E0983E592E00197F1F760E28EEA95E099
:104800000E948E096091B305606240E08EEA95E0F7
:104810000E94A70984E08093B40540E06CE08EEA32
:1048200095E00E94A7090E94090A82E08093B505DD
:1048300040E066E08EEA95E00E94A70940E062E071
:104840008EEA95E00E94A7098BE39FE10197F1F7BB
:1048500080E00E9416228AE080930A0187EC91E0B2
:104860009A8389838091AA059091AB05A091AC05AC
:10487000B091AD058B839C83AD83BE83CE01019641
:104880000E94362062E08091BF050E94961A80E364
:1048900098EFAFEFBFEF8093C3059093C405A0934B
:1048A000C505B093C60589E995E090932C058093E2
:1048B0002B058091CE059091CF05A091D005B091A8
:1048C000D1058093310590933205A0933305B093C1
:1048D000340510922E0510922D0580E590E09093FE
:1048E0003605809335050E94C40988EC90E09093CA
:1048F00074058093730540E060E48EEA95E00E94C1
:10490000A70900E011E0A8E0EA2EA1E0FA2EF801E4
:1049100061918F018EEA95E00E94BE09E016F106D2
:10492000B1F70E94090AF6E02F2E33243A940FEFD4
:1049300010E00E94771B882389F18091C0058B309D
:1049400029F160F18551823048F56091BA0570E037
:1049500080E090E00E94082B20E030E040E853E443
:104960000E94692B6B017C016091BB0570E080E0C7
:1049700090E00E940A2BA70196010E949B2C2DEC2F
:104980003CEC4CEC5DE30E94692B0CC06091BA05D5
:1049900070E080E090E00E94082B04C060E070E0CE
:1049A00080EC9FE70E94072D2B013C017E8F6D8FCD
:1049B0000E94771B8823B9F18091C0058B3029F0C4
:1049C00090F18551823048F02EC06091BC0570E0B6
:1049D00080E090E00E94082B2AC0B090BC056B2DAF
:1049E0006F7770E080E090E00E940A2B20E030E0DA
:1049F00040E853E40E94692B6B017C016091BD0586
:104A000070E080E090E00E940A2BA70196010E94CE
:104A10009B2C2DEC3CEC4CEC5DE30E94692BB7FE2B
:104A200006C0905804C060E070E080EC9FE70E94F0
:104A3000072D6B017C0178A36F8F0E946B1B109276
:104A400054048090500490905104A0905204B0906F
:104A500053049B01AC01281939094A095B0920322A
:104A60003E444105510508F463C0609350047093BF
:104A700051048093520490935304B60181E090E076
:104A80000E94E41FB20182E090E00E94E41F44E231
:104A900053E065E971ED89E090E00E94140A883CDA
:104AA000910569F465E373E082E894E00E94531293
:104AB00063ED72E082E894E00E94531237C01C8AD2
:104AC0001B8A1E8A1D8A188E1F8A4AE0BE016F5FEC
:104AD0007F4F0E948C28BE016F5F7F4FCE014396AF
:104AE0000E948B1860E573E0CE0101960E94C71802
:104AF000BE016D5E7F4FCE0101960E943718FC010A
:104B0000448155816081718182E894E00E948F1018
:104B100063ED72E082E894E00E945312CE010196A8
:104B20000E94B918CE0143960E94B9180E94090A42
:104B3000C6014797049740F4EEE38E2E912C909295
:104B40004F0480924E0416C02F8D38A127313105B5
:104B50003CF441EB50E050934F0440934E040AC0A4
:104B60008F8D98A14B9734F082E090E090934F04A2
:104B700080934E04ED8DFE8DE634F1051CF0F1E0DE
:104B8000F093540480914E0490914F04289E90011C
:104B9000299E300D1124832F99272E7F3327329E93
:104BA000A001339E500D1124452F5527B801641BD9
:104BB000750B369EA001379E500D1124B801621B63
:104BC000730B369E9001379E300D1124232F33270F
:104BD000B801621B730B369E9001379E300D112475
:104BE0008230910549F168F40097C9F00197E1F529
:104BF00050934C0410924D0410934B0400934A04BC
:104C000016C08330910519F1049771F530934C0467
:104C100010924D0410924B0410924A0420C010933D
:104C20004D0400934C0430934A0410924B041092AC
:104C300049041092480424C010924D0410924C0470
:104C400010934B0400934A043093480417C0109209
:104C50004D0410924C0450934A0410924B0410934C
:104C60004904009348040CC010934D0400934C0475
:104C700010924B0410924A04509348041092490435
:104C800060914C0470914D0483E00E94D21A6091AF
:104C90004A0470914B0485E00E94D21A6091480446
:104CA0007091490486E00E94D21A6091540489E010
:104CB0000E94491AB60182E894E00E9444226BE700
:104CC00073E082E894E00E945312B20182E894E01B
:104CD0000E94442261E873E082E894E00E9453124B
:104CE00063ED72E082E894E00E94531280E00E943B
:104CF000162264E873E08EEA95E00E945312B60132
:104D00008EEA95E00E94442260E08EEA95E00E94DF
:104D1000BE096EE773E08EEA95E00E94531281E0CF
:104D20000E9416226CE873E08EEA95E00E9453120E
:104D3000B2018EEA95E00E94442261E873E08EEAB7
:104D400095E00E9453126AE174E080E090E00E94D6
:104D5000311B0E949111EDCDCF92DF92EF92FF9225
:104D6000CF93DF93109285041092840488EE93E031
:104D7000A0E0B0E08093860490938704A093880419
:104D8000B09389048BE491E0909383048093820430
:104D900085EC90E090938F0480938E0484EC90E0F7
:104DA000909391048093900480EC90E0909393040E
:104DB0008093920481EC90E0909395048093940406
:104DC00082EC90E0909397048093960486EC90E0B8
:104DD000909399048093980410929B0410929C04E1
:104DE00010929D0410929E0487EC91E09093D3055D
:104DF0008093D2051092D4051092D5051092D60555
:104E00001092D7059093D9058093D8051092DA05B2
:104E10001092DB051092DC051092DD059093DF0502
:104E20008093DE051092E0051092E1051092E205F4
:104E30001092E3059093E5058093E4051092E60552
:104E40001092E7051092E8051092E9059093EB05A2
:104E50008093EA051092EC051092ED051092EE0594
:104E60001092EF059093F1058093F0051092F205F2
:104E70001092F3051092F4051092F5059093200519
:104E800080931F0510922105109222051092230590
:104E900010922405909326058093250510922705EE
:104EA000109228051092290510922A059093F70573
:104EB0008093F6051092F8051092F9051092FA0504
:104EC0001092FB059093FD058093FC051092FE0562
:104ED0001092FF05109200061092010610922C0508
:104EE00010922B0510922E0510922D0590933005EF
:104EF00080932F058091FE059091FF05A0910006FB
:104F0000B09101068093310590933205A09333054B
:104F1000B093340580E590E0909336058093350595
:104F2000C0E0D0E065ED72E0CE01895C9A4F0E944E
:104F3000C7182696C033D105A9F765ED72E085E75D
:104F400095E00E94C71865ED72E08BE795E00E943E
:104F5000C71865ED72E081E895E00E94C71865ED1D
:104F600072E087E895E00E94C7180E94C40988ECA7
:104F700090E09093740580937305109290051092C1
:104F80008F0588EE93E0A0E0B0E0809391059093C8
:104F90009205A0939305B09394052DE531E03093ED
:104FA0008E0520938D0527EC31E03093CD052093BD
:104FB000CC051092CE051092CF051092D00510921C
:104FC000D10542E04093BF055BE05093C005ECE89B
:104FD000F1E0E491E093C105E8E7F1E0E491E093CA
:104FE000C20550E8C52E5EE3D52EE12CF12CC0920F
:104FF000C705D092C805E092C905F092CA05109283
:10500000B1051092B0056FEA71E07093AF0560933F
:10501000AE055FE35093B20550E15093B70540935E
:10502000B8051092B9053093A9052093A80520EC86
:105030002093AA0528EA2093AB0526E52093AC052A
:1050400023E42093AD0510929C0510929B0580935C
:105050009D0590939E05A0939F05B093A00581E8C0
:1050600091E090939A058093990584E08093A5053B
:1050700088EE93E09093A7058093A605DF91CF91EA
:10508000FF90EF90DF90CF900895EF920F931F93D2
:10509000CF93DF93E80147FD02C034E001C034E163
:1050A000042E000C550B57FF03C051954195510933
:1050B000E32E022F242FAE010E94C628CE01DF91DD
:1050C000CF911F910F91EF9008951F93FC019927A5
:1050D0008827BC01E89411911032E9F3193010F0DF
:1050E0001E30C8F31B3251F01D3249F4689406C0DB
:1050F0000E949728610F711D811D911D1191105300
:105100001A30B0F33EF490958095709561957F4F7D
:105110008F4F9F4F1F910895BB274A3031F4992339
:1051200022F4BDE2909581959F4F0C94AD28592FA4
:10513000482F372F262F660F771F881F991F660F5E
:10514000771F881F991F620F731F841F951F660F9B
:10515000771F881F991F0895BB27FB015527AA2792
:10516000880F991FAA1FA41710F0A41B83955051F4
:10517000B9F7A05DAA3308F0A95DA193009779F76C
:10518000B111B1931192CB010C94F82AA9E0B0E0CF
:10519000ECECF8E20C94382C6A01122FB02E2BE3C1
:1051A000201720F0FF24F394F00E02C02CE3F22E1F
:1051B0000F2D27E0AE014F5F5F4F0E94202ABC01F8
:1051C0004981842F8970813031F0E1FC06C0E0FE16
:1051D00006C090E205C09DE203C09BE201C090E0E2
:1051E0005E2D507143FF3CC0911102C083E001C0AD
:1051F00084E0811718F4212F281B01C020E05111F1
:105200000BC0F601822F30E2882319F031938150D0
:10521000FBCFC20ED11C20E0992329F0D6019C932C
:10522000F60131966F01C6010396E2FE0AC03EE424
:10523000D6013C9341E411964C93119712963C93FE
:1052400006C03EE6F601308341E641833283FC012D
:10525000322F40E2332309F442C041933150FACF58
:1052600042FF44C0911102C083E001C084E0811775
:1052700018F4212F281B01C020E051110BC0F601AA
:10528000822F30E2882319F031938150FBCFC20E78
:10529000D11C20E0992329F0D6019C93F601319688
:1052A0006F01C6010396E2FE0BC039E4D6013C93C0
:1052B0003EE411963C93119736E412963C9307C056
:1052C00039E6F60130833EE6318336E63283FC016F
:1052D000322F40E2332319F041933150FBCFFC01D0
:1052E000E20FF11D10828EEF9FEFA6C021E030E0AB
:1052F000911102C020E030E0161617061CF4FB01E5
:10530000319602C0E1E0F0E02E0F3F1FBB2021F0FC
:10531000EB2DF0E0319602C0E0E0F0E02E0F3F1FF1
:10532000E12FF0E02E173F071CF4121B212F01C0C4
:1053300020E08E2D887159F4F601822F30E2882307
:1053400019F031938150FBCFC20ED11C20E099237C
:1053500029F0D6019C93F60131966F0151110BC0D3
:10536000F601822F90E3882319F091938150FBCFAF
:10537000C20ED11C20E00F2D060F9A81342F307100
:1053800044FF03C0913309F40150101624F409308E
:1053900018F008E001C001E0AB0177FF02C040E077
:1053A00050E0FB01E41BF50BA1E0B0E0AC0FBD1F2A
:1053B000EA0FFB1F8EE2A82E4B01801A91080B2DDD
:1053C00010E01195019511094F3FBFEF5B0721F4E4
:1053D000D601AC9211966D01641775072CF08416F6
:1053E000950614F4818101C080E341505109319642
:1053F000D60111967D014017510724F0D6018C93F8
:105400006701E2CF6417750739F4963320F49533BA
:1054100019F4311101C081E3F6018083F701822F75
:1054200090E2882319F091938150FBCFF701E20FAE
:10543000F11D108280E090E02996ECE00C94542C51
:10544000283008F027E03327DA01990F311D87FD56
:10545000916000966105710539F432602E5F3D93CD
:1054600030E32A95E1F708959F3F30F080387105C9
:10547000610509F03C5F3C5F3D93913008F0806826
:10548000911DDF93CF931F930F93FF92EF92192FEC
:10549000987F9695E92F96959695E90FFF27EE53FD
:1054A000FF4F99273327EE24FF24A701E70105903A
:1054B0000894079428F4360FE71EF81E491F511D63
:1054C000660F771F881F991F0694A1F70590079410
:1054D00028F4E70EF81E491F561FC11D770F881FBD
:1054E000991F661F0694A1F70590079428F4F80EFB
:1054F000491F561FC71FD11D880F991F661F771F91
:105500000694A1F70590079420F4490F561FC71F72
:10551000D81F990F661F771F881F0694A9F78491DB
:105520001095177041F0D695C79557954795F79404
:10553000E7941A95C1F7E8E6F0E0689415901591A4
:1055400035916591959105907FE27395E118F10A87
:10555000430B560BC90BD009C0F7E10CF11E431FDA
:10556000561FC91FD01D7EF4703311F48A95E6CF03
:10557000E894015030F0080F0AF40027021708F4ED
:10558000202F2395022F7A3328F079E37D932A95F3
:10559000E9F710C07D932A9589F60694979567954B
:1055A000379517951794E118F10A430B560BC90B61
:1055B000D00998F023957E9173957A3308F070E3C3
:1055C0007C932013B8F77E9170617D9330F08395C2
:1055D00071E37D9370E32A95E1F71124EF90FF903A
:1055E0000F911F91CF91DF91992787FD9095089595
:1055F000DC01FC01672F71917723E1F7329704C03A
:105600007C916D9370836291AE17BF07C8F30895C4
:10561000E89409C097FB3EF490958095709561954C
:105620007F4F8F4F9F4F9923A9F0F92F96E9BB2702
:105630009395F695879577956795B795F111F8CF7E
:10564000FAF4BB0F11F460FF1BC06F5F7F4F8F4FE9
:105650009F4F16C0882311F096E911C0772321F0DF
:105660009EE8872F762F05C0662371F096E8862F77
:1056700070E060E02AF09A95660F771F881FDAF7CE
:10568000880F9695879597F90895990F0008550FFB
:10569000AA0BE0E8FEEF16161706E807F907C0F0B8
:1056A00012161306E407F50798F0621B730B840BC0
:1056B000950B39F40A2661F0232B242B252B21F49A
:1056C00008950A2609F4A140A6958FEF811D811D3A
:1056D00008950E947C2B0C94ED2B0E94DF2B38F058
:1056E0000E94E62B20F0952311F00C94D62B0C94FD
:1056F000DC2B11240C94212C0E94FE2B70F3959F1F
:10570000C1F3950F50E0551F629FF001729FBB27B8
:10571000F00DB11D639FAA27F00DB11DAA1F649F54
:105720006627B00DA11D661F829F2227B00DA11D07
:10573000621F739FB00DA11D621F839FA00D611D8D
:10574000221F749F3327A00D611D231F849F600DAE
:10575000211D822F762F6A2F11249F5750409AF0D7
:10576000F1F088234AF0EE0FFF1FBB1F661F771F63
:10577000881F91505040A9F79E3F510580F00C942E
:10578000D62B0C94212C5F3FE4F3983ED4F38695FE
:1057900077956795B795F795E7959F5FC1F7FE2BCE
:1057A000880F911D9695879597F9089597F99F67AA
:1057B00080E870E060E008959FEF80EC0895002499
:1057C0000A941616170618060906089500240A9466
:1057D00012161306140605060895092E0394000CEC
:1057E00011F4882352F0BB0F40F4BF2B11F460FF7B
:1057F00004C06F5F7F4F8F4F9F4F089557FD9058A4
:10580000440F551F59F05F3F71F04795880F97FB84
:10581000991F61F09F3F79F087950895121613063E
:105820001406551FF2CF4695F1DF08C0161617066D
:105830001806991FF1CF86957105610508940895A2
:10584000E894BB2766277727CB0197F908950E9434
:105850008B2CA59F900DB49F900DA49F800D911D42
:10586000112408952F923F924F925F926F927F92F0
:105870008F929F92AF92BF92CF92DF92EF92FF9260
:105880000F931F93CF93DF93CDB7DEB7CA1BDB0B0C
:105890000FB6F894DEBF0FBECDBF09942A883988B1
:1058A00048885F846E847D848C849B84AA84B984B8
:1058B000C884DF80EE80FD800C811B81AA81B981C4
:1058C000CE0FD11D0FB6F894DEBF0FBECDBFED01D8
:1058D0000895A1E21A2EAA1BBB1BFD010DC0AA1F31
:1058E000BB1FEE1FFF1FA217B307E407F50720F049
:1058F000A21BB30BE40BF50B661F771F881F991FC4
:105900001A9469F760957095809590959B01AC010C
:10591000BD01CF010895A29FB001B39FC001A39F15
:10592000700D811D1124911DB29F700D811D1124D8
:10593000911D08955058BB27AA270E94B22C0C94A1
:10594000ED2B0E94DF2B38F00E94E62B20F039F47B
:105950009F3F19F426F40C94DC2B0EF4E095E7FB42
:105960000C94D62BE92F0E94FE2B58F3BA1762072E
:1059700073078407950720F079F4A6F50C94202C82
:105980000EF4E0950B2EBA2FA02D0B01B90190015A
:105990000C01CA01A0011124FF27591B99F0593F9E
:1059A00050F4503E68F11A16F040A22F232F342FE6
:1059B0004427585FF3CF469537952795A795F04034
:1059C0005395C9F77EF41F16BA0B620B730B840B49
:1059D000BAF09150A1F0FF0FBB1F661F771F881F01
:1059E000C2F70EC0BA0F621F731F841F48F4879559
:1059F00077956795B795F7959E3F08F0B0CF93954B
:105A0000880F08F09927EE0F9795879508950E94C3
:105A10000E2D6894B1110C94212C08950E94062C2F
:105A200088F09F5798F0B92F9927B751B0F0E1F05F
:105A3000660F771F881F991F1AF0BA95C9F714C00F
:105A4000B13091F00E94202CB1E008950C94202CEC
:105A5000672F782F8827B85F39F0B93FCCF3869548
:105A600077956795B395D9F73EF4909580957095A5
:105A700061957F4F8F4F9F4F08950E94452B880B54
:105A8000990B0895EE0FFF1F0590F491E02D0994F6
:105A90000F931F93CF93DF938230910510F482E030
:105AA00090E0E0910B06F0910C0620E030E0A0E0E1
:105AB000B0E0309719F1408151810281138148177C
:105AC0005907C8F08417950769F4109731F01296BA
:105AD0000C93129713961C9327C000930B061093F8
